:020000022000DC
:1060000000F003206D630200556302005763020035
:10601000596302005B6302005D6302000000000040
:106020000000000000000000000000005F630200AC
:106030006163020000000000636302006563020008
:106040006763020067630200676302006763020020
:1060500067630200676302008570020067630200E5
:106060006763020067630200D5860300676302006E
:1060700067630200676302006763020067630200F0
:10608000676302001D1E040035C002006763020042
:10609000811E04006763020035B7030067630200D6
:1060A00067630200676302006763020067630200C0
:1060B0006763020067630200000000000000000048
:1060C00067630200676302006763020067630200A0
:1060D0006763020067630200676302006763020090
:1060E000676302006763020067630200000000004C
:1060F0000000000067630200000000006763020008
:10610000000000000000000000000000000000008F
:10611000000000000000000000000000000000007F
:10612000000000000000000000000000000000006F
:10613000000000000000000000000000000000005F
:10614000000000000000000000000000000000004F
:10615000000000000000000000000000000000003F
:10616000000000000000000000000000000000002F
:10617000000000000000000000000000000000001F
:10618000000000000000000000000000000000000F
:1061900000000000000000000000000000000000FF
:1061A00000000000000000000000000000000000EF
:1061B00000000000000000000000000000000000DF
:1061C00000000000000000000000000000000000CF
:1061D00000000000000000000000000000000000BF
:1061E00000000000000000000000000000000000AF
:1061F000000000000000000000000000000000009F
:10620000344935480A1A02D0072291438D46334952
:1062100033480A1A06D00722914381F309880222E3
:1062200082F314882F483049304A00F042F8304851
:106230003049314A00F03DF830483149314A00F0E8
:1062400038F831483149324A00F033F831483249A0
:10625000324A00F02EF832483249334A00F029F829
:1062600032483349334A00F024F833483349002296
:1062700000F02AF832483349002200F025F832486D
:106280003249091A082902DB0022026041601F48D6
:106290001F49884205D00268043003B4904703BC0C
:1062A000F7E700208646EC4600200021284A904768
:1062B000FEE7884207D0521A05D0037801300B70F0
:1062C0000131013AF9D17047884202D002700130A1
:1062D000FAE7704700F0032000E8032000F00320F5
:1062E00000F00320905F0400A02D00200C2F002060
:1062F000A4630200A4630200F23F0400905F040064
:10630000A02D0020A02D00204041040040410400A9
:106310004041040040410400404104004041040069
:106320004041040040410400905F0400FC60040010
:106330000C2F00200C2F00200C2F00208960002043
:106340008C6000208C6000208C6000208C64002019
:1063500039680200FEE7FEE7FEE7FEE7FEE7FEE73C
:10636000FEE7FEE7FEE7FEE7704700BF094880470B
:1063700009484FF007018843854608488047084888
:10638000016841F470010160BFF34F8FBFF36F8F5D
:10639000FFF736BF6963020000F003202DBB030046
:0463A00088ED00E0A4
:1063A40041DF704710B50C460D2000F0B1FD2070A0
:1063B40010BD000010B582B00C460D4B1B6813F4E1
:1063C400804F03D00B4B1B68032B05DC21460D20AB
:1063D40000F0A9FD02B010BD074BD3F804350191BC
:1063E400064A009260220649042006F033FFEDE7D6
:1063F4006C2E0020682E002000100140A8410400EB
:106404009F41040000B583B00F4B1B6813F4804F09
:1064140003D00E4B1B68032B0ADC0322C8214FF464
:10642400F03000F09DFD0AF0F1FA03B05DF804FBD2
:10643400074BD3F80435074A009278220649042012
:1064440006F008FFE9E700BF6C2E0020682E00204C
:1064540000100140C04104009F41040010B582B007
:1064640004462C4B1B6813F4804F03D02A4B1B6843
:10647400032B04DC7CB1032C2ED002B010BD274BBF
:10648400D3F804350190264A009288222549042035
:1064940006F0E0FEEEE71F4B1B6813F4804F03D0B9
:1064A4001D4B1B68032B0CDC0D2000F031FD80F02C
:1064B4000101C9B20D2000F036FD1B4800F030FB8D
:1064C400DBE7164BD3F80435184A0092902215499D
:1064D400042006F0BFFEE7E70AF032FA98B90D4B44
:1064E4001B6813F4804FC8D00B4B1B68032BC4DD0F
:1064F4000A4BD3F804350E4A0092A4220949042019
:1065040006F0A8FEB9E70BF0B9FE0AF00FFAFFF7A0
:1065140079FFB2E76C2E0020682E002000100140A5
:10652400DC4104009F410400A02D0020F041040040
:10653400004204003038042800D9704708B5FFF73A
:106544008DFF08BD08B503781C2B00D008BDFFF7EC
:1065540059FFFBE700B58BB02022002101A81DF0F4
:10656400E1FC01238DF8043007238DF8073006235E
:106574008DF80C30084B0593084B0993084901A882
:106584000AF0ECF910B90BB05DF804FB054AE821F8
:1065940015F0C2FBF7E700BF49650200A9660200D7
:1065A4000C2F00205C41040000B583B01B4A052178
:1065B4004FF4103006F032FE194B1B6813F4804F71
:1065C40003D0184B1B68032B13DC1BF05BFCD8B9FE
:1065D40000F00AFD144800F027FDD0B900F0F0FEE9
:1065E40000F00AFF00F036FFFFF7B4FF03B05DF8D8
:1065F40004FB0E4BD3F804350D4A0092EE220D49EC
:10660400042006F027FEE0E70B4AF02115F084FB96
:10661400DEE7094AF42115F07FFBDFE7F5D102003C
:106624006C2E0020682E00206164020000100140DE
:10663400384204009F4104005C41040000B583B06B
:106644000021114800F08EFA58B9104B1B6813F45E
:10665400804F03D00E4B1B68032B07DC03B05DF89F
:1066640004FB0C4A702115F057FBEEE70A4BD3F8F4
:106674000435054A12880192084A00927122084999
:10668400042006F0E7FDE9E7A02D00206C2E002091
:10669400682E00205C4104000010014068420400A0
:1066A4009F41040000B583B00C4B1B6813F4804F6A
:1066B40003D00B4B1B68032B04DCFFF7BFFF03B0B5
:1066C4005DF804FB074BD3F80435074A0092DA223D
:1066D4000649042006F0BEFDEFE700BF6C2E002043
:1066E400682E002000100140844204009F410400F1
:1066F40030B587B06421194800F0A4FB184B1B780F
:106704009BB100F0C9FF00F0F1FC0AF06FF9F8B991
:1067140000214FF4F03000F017FC0222C8214FF49E
:10672400F03000F01DFC07B030BD6C460D4D0FCDB0
:106734000FC495E8030084E80300684600F020FBDA
:106744000028DED0084A40F2111115F0E5FAD8E726
:10675400054A4FF48B7115F0DFFAD9E73965020069
:106764000C2F0020D84204005C41040010B50446FC
:1067740000214FF4F03000F0E7FB04EB84046200E6
:1067840032214FF4C03000F0EBFB10BD08B500F02F
:106794001DFC08BD00B585B0204B1B6813F4804F69
:1067A40003D01F4B1B68032B1FDC00F025FE00F0F9
:1067B40051FE03A80FF044FF184B1B6813F4804FDD
:1067C40003D0174B1B68032B1ADC00F0FFFB0021DE
:1067D4004FF4F03000F0B8FB0422C8214FF4F0303D
:1067E40000F0BEFB05B05DF804FB0E4BD3F8043596
:1067F4000D4A0092C6220D49042006F02BFDD4E771
:10680400084BD3F80435BDF80C200192084A0092D5
:10681400D1220649042006F01DFDD6E76C2E002087
:10682400682E002000100140A44204009F4104008F
:10683400C042040008B5FFF7B7FEFFF759FFFFF7A2
:10684400AFFDFCE730B583B0044615461E4B1B680C
:1068540013F4804F03D01D4B1B68032B11DCA36B77
:1068640004F13C012046984794F83C302B7094F88E
:106874003D306B70236C0BB1626C6AB16B6003B01A
:1068840030BD134BD3F80435124A0092AA221249A0
:10689400042006F0DFFCE2E71BF076FBA16C1BF0A2
:1068A40079FB4FF47A7303FB00F0C20B236CB3EB58
:1068B400D03F05D3B0F5004F02D39B1A6B60DEE7DF
:1068C40000236B60DBE700BF6C2E0020682E0020E5
:1068D40000100140484304003A43040010B588B056
:1068E4000446436CE3B9036C13B190F83D20BAB18C
:1068F40094F83D2084F83C208DF818208DF8192058
:10690400079306A920461AF01BFF94F84C303BB9B4
:10691400636B94F83C1020469847012384F84C306C
:106924000F4B1B6813F4804F03D00E4B1B68042BD2
:1069340001DC08B010BD0C4BD3F8043594F83C20AE
:1069440094F83D10206C0490606C039002910192C5
:10695400064A009284220649052006F07BFCE8E7FB
:106964006C2E0020682E00200010014054430400C7
:106974003A43040030B583B00446036B18681BF037
:10698400EDFA636C3BBB236C1BB3590CD8034FF477
:106994007A72002310F5FA7041F100011DF061F9DB
:1069A400B0F1807F2AD2042831D9236B22460146D4
:1069B40018681BF0B5FA05461BF0E6FAA06445B169
:1069C4001C4B1B6813F4804F03D01B4B1B68002B1C
:1069D40025DC03B030BD256B590CD8034FF47A7213
:1069E400002310F5FA7041F100011DF03AF9014657
:1069F400224628681BF094FA0546E0E7236B2246FA
:106A04006FF07F4118681BF08BFA0546D4E7236BBF
:106A14002246052118681BF083FA0546CCE7074B8C
:106A2400D3F80435064A009268220649012006F08C
:106A340011FCCEE76C2E0020682E002000100140CF
:106A4400944304003A430400F0B583B00446164668
:106A54001D46089F1A4B1B6813F4804F03D0194B33
:106A64001B68032B1BDC002384F84C30337884F838
:106A74003D300DB36B6863642B6823642046FFF7D5
:106A84002DFF2046FFF776FF3FB194F83C303B7072
:106A940094F83D307B70236C7B6003B0F0BD0A4BEF
:106AA400D3F8043512780192084A0092CC2208499E
:106AB400042006F0CFFBD6E7002363642364DDE7FC
:106AC4006C2E0020682E002000100140B443040006
:106AD4003A43040038B50446436C9BB9056CADB128
:106AE400690CE8034FF47A72002310F5FA7041F14F
:106AF40000011DF0B6F8B0F1807F0BD3A5F2FF15AD
:106B0400256403E000234364FFF7E8FE2046FFF713
:106B140031FF38BD002323642046FFF7DFFEF5E78D
:106B240010B582B00446836B00F13C01984794F899
:106B34003C3084F83D30002363642364236B18687D
:106B44001BF00CFA94F83C308DF8003094F83D308A
:106B54008DF80130236C0193694620461AF0F0FD4C
:106B640002B010BD88B110B504460B4BC362436B31
:106B74006BB1836B6BB11AF0B1FD00B110BD074A64
:106B84000021206B1BF0B6F9F8E70E2070470E20A9
:106B9400F4E70E20F2E700BFC4430400D96A020000
:106BA4002B4B1B78002B52D000B585B0012804D0A4
:106BB400032845D005B05DF804FB0023029302A925
:106BC400012014F05DFC40BB02A814F0B3FC38BBF8
:106BD4000123039303A90DF1060010F017FB10BB6A
:106BE400BDF806000FF0F6FE0DF1050110F0A2F855
:106BF400E0B90BF0B9F89DF8051000200BF07EFB0E
:106C0400B8B903F097FFC0B9114B00221A70114BA9
:106C14001B68002BCED09847CCE715F06FF8D3E76C
:106C240015F06CF8D4E715F069F8D9E715F066F8B3
:106C3400DFE7784600F0F2FCE3E715F05FF8E3E7FE
:106C440014F0ECFC0028B5D015F058F8B2E7704702
:106C5400322F0020342F002008B5064B01221A7071
:106C6400054803F0CFFF03F0B1FF00B908BD15F0EC
:106C740045F8FBE7322F0020F02D002008B50378FB
:106C84001C2B00D008BD074B1B78002BFAD014F046
:106C940009FD18B9044803F0B9FFF3E715F02EF81D
:106CA400F8E700BF322F0020F02D002008B5074977
:106CB400074815F0C5FC00B108BD032300220549AF
:106CC4000969054815F0D8FCF6E700BF4C2F0020F1
:106CD400B8320020342F00208431002008B5037816
:106CE400023B082B3FD8DFE803F01C05113E3E2C85
:106CF4003E3E36001E4B5B68002B34D0007A0028E1
:106D040031D01C4A0121117098472CE0184B9B6824
:106D14004BB3184A127832B3164A002111709847BF
:106D240021E0154B1B784BB9114BDB681BB1114AA1
:106D3400002111709847FFF7B9FF14E0FFF78CFFAB
:106D440011E010220A4B59690C4815F01FFD50B18F
:106D540014F0D4FF07E08168C06809F087FD18B912
:106D6400054B01221A7008BD14F0C8FFF8E700BFF4
:106D7400342F0020302F0020312F002084310020B8
:106D840070B586B004461F4A03AB07CA03C323F891
:106D9400022B120C1A701C4E35460FCC0FC594E80A
:106DA400030085E80300736953B3184B009303ABE6
:106DB400174A1849184815F001FC034610B1184643
:106DC40006B070BD154817F0C1F80146124815F019
:106DD40021FC03460028F2D1114817F077FA034644
:106DE4000028ECD10E4817F0A7FA01460A4815F01E
:106DF40011FC03460028E2D1FFF758FF0346DEE703
:106E04000723DCE7CC430400342F0020E16C0200AC
:106E14004C2F0020B8320020843100206C2F002039
:106E24003431002008B5064B1B681BB906E0044B3F
:106E34001B68984712F0BEFD0028F8DA08BD00BFB1
:106E4400F832002010B50C46144B1860144A012186
:106E540014481BF04FF8A0B9610CE00341F26F72C3
:106E640000238B4208BF824210D24FF47A7200236F
:106E74001CF0F7FE014600220B481BF051F838B90C
:106E840010BD0A4A4A2114F047FFE5E70521F2E75D
:106E9400064A4B2114F040FFF2E700BFF83200200D
:106EA400296E02001C440400FC320020D843040074
:106EB40008B5134B1B6873B14FF0A042D2F80435E8
:106EC400104909684B40C2F804350D4A1368013B68
:106ED400136023B108BD002014F010FFECE70A484A
:106EE4001BF03CF84FF0A042D2F80435054909687C
:106EF40023EA0103054909680B43C2F80435E9E7AD
:106F04001C33002020330020243300204C33002085
:106F14004FF0A043D3F80425012383401A420CBF49
:106F240001200020704739B1012303FA00F04FF02B
:106F3400A043C3F80C057047012303FA00F04FF097
:106F4400A043C3F80805704721B14FF0A043C3F82C
:106F54000C0570474FF0A043C3F8080570470000C4
:106F64005AB338B51346132900D838BD134A1060F4
:106F74005B00013B124A13604FF0A043D3F8043581
:106F84001840104B186000254C0CC8034FF47A725B
:106F9400002310F5FA7044EB05011CF062FE014673
:106FA4002A4609481AF0BCFF0028DED1034B1A68B0
:106FB4004FF0A043C3F80C25D7E7704720330020D7
:106FC4001C3300204C3300202433002008B504482F
:106FD4001AF0C4FF0021034B1868FFF7B5FF08BD82
:106FE400243300202033002008B50D230BE04FF09C
:106FF400A04103F5E072032041F8220001229A40E7
:10700400C1F808250133102BF1D9054A012105489F
:107014001AF070FF00B908BD14F070FEFBE700BF62
:10702400B56E020020440400F0B1104A1060002341
:1070340009E00F4AD25C02F5E0724FF0A0410D481E
:1070440041F822000133032BF3D90B4B4FF00042DC
:10705400C3F804230020C3F87C01084BC02283F842
:10706400062340221A6070470E20704744330020E4
:10707400244404000C0003000060004000E100E030
:1070840010B50024144BC3F87C4103E0D11A14E07A
:107094000134E4B2032C1ED84FF0A043D3F81025DA
:1070A4000E4B195D01238B409343F1D00C4B1B68AD
:1070B4000C4AD2F80425991AE8D443F2333399429E
:1070C400E6D9084BD3F80425054B1A60064B1B6818
:1070D40020469847DCE710BD0060004024440400CB
:1070E400483300200010014044330020002869D0B8
:1070F4002DE9F043CFB00546334B1B6813F4804FA2
:1071040003D0324B1B68032B0BDC2F4B1B6813F48F
:10711400804F03D02D4B1B68032B2ADC4FB0BDE8F6
:10712400F08300230F2B0FD8EA5C29490C6810095F
:107134005900265C0DA800F8136002F00F0201311B
:10714400A25C42540133EDE70DAA00238DF85430BC
:1071540003F1804303F58833D3F8043502921D4AC2
:1071640001921D4A009241221C49042006F072F843
:10717400CBE71B4BD3F80435AA88E988287A6C7AC4
:10718400AE7AEF7A95F80CC095F80DE095F80E807C
:1071940095F80F90CDF82C90CDF82880CDF824E008
:1071A400CDF820C0079706960594049003910292A7
:1071B4002A6801920B4A009242220849042006F0F0
:1071C40049F8ABE7704700BF6C2E0020682E002002
:1071D400702E002070440400844404005E440400C3
:1071E400001001408C44040072DF704773DF704765
:1071F40074DF70472DE9F047A2B006460F4690466B
:10720400314A02F1040900255560D5602F480378FE
:10721400C3EB431C2E4C644414602E4961449160BA
:107224001F2191809181013303F0010303704FF01A
:107234003C0A5246294613A81CF074FE06238DF816
:107244004F30ADF8486001238DF84A30ADF85C301A
:1072540012AA1892ADF83C60ADF8408011970DEB7E
:107264000A021D928DF878305246294668461CF071
:1072740059FE02238DF800304A46214613A813F024
:10728400F1FF90B9104B03F10C029968684613F0B2
:10729400E9FF68B9104A0C491048FFF7A5FF082810
:1072A40009D070B922B0BDE8F08714F027FDE9E7F2
:1072B40014F024FDEEE7002203490848FFF794FF89
:1072C400EFE714F01BFDEDE794330020503300206A
:1072D40054330020A4330020002E0020FC2D002075
:1072E400B0F5202F0AD2074BA3FB0023DB0808B11B
:1072F40003B90123044A9381916070474FF6FF73E9
:10730400F5E700BFCDCCCCCC002E002008B5012180
:10731400054B1878FFF76AFF18B9002004F090FBBA
:1073240008BD14F0EBFCF8E7FC2D002008B5044B75
:107334001878FFF75DFF00B908BD14F0DFFCFBE728
:10734400FC2D002076DF70477ADF70477CDF7047C2
:1073540008B514F0D3FC08BD08B503F05BFC08BD08
:1073640000B583B0037823B1012B0BD003B05DF8D3
:1073740004FB3B214088FFF7E5FF0028F6D014F01A
:10738400BDFCF3E7094B1B6813F4804FEED0084BA8
:107394001B68032BEADD074BD3F80435064A009239
:1073A40068220649042005F055FFDFE76C2E002013
:1073B400682E0020001001401C4504000245040012
:1073C40000B583B014F02AF968B90023019301A928
:1073D400012014F055F848B901A814F0ABF840B9ED
:1073E40003B05DF804FB14F089FCEEE714F086FCAE
:1073F400F2E714F083FCF3E700B585B09DF80C3098
:10740400012262F3030362F307138DF80C30102298
:107414000F4903A8FFF79AFF98B97823ADF8043011
:10742400C823ADF806300023ADF808304FF4C87314
:10743400ADF80A3001A8FFF787FF28B905B05DF859
:1074440004FB14F05BFCE8E714F058FCF6E700BF1B
:107454004845040000B58BB07823ADF80430C82348
:10746400ADF806300023ADF808304FF4C872ADF81B
:107474000A200693079301AA039240F6CD42049290
:107484004FF48032059203228DF81820ADF81A309B
:107494008DF81C30064B0893064B099303A814F08F
:1074A400A3FA10B90BB05DF804FB14F027FCF9E75C
:1074B40065730200557302000620704700B587B05B
:1074C40044F20103984262D01BD8012836D041F21D
:1074D4000103984276D1474B1B6813F4804F36D092
:1074E400454B1B68002B32DD444BD3F80435029224
:1074F4000191434A009263224249012005F0AAFE09
:1075040025E044F2020398425CD13A4B1B6813F421
:10751400804F1CD0384B1B68002B18DD374BD3F839
:10752400043510880390526802920191364A009201
:1075340069223449012005F08DFE08E02D4B1B68BB
:1075440013F4804F03D02C4B1B68002B12DC4FF03C
:10755400A0434FF4F032C3F81825C3F80C25EFF319
:10756400108372B64DF6AD6C284B1B78002B3ED0C1
:1075740030BFF9E7214BD3F8043502920191244A34
:10758400009260221F49012005F064FEDFE7194BD9
:107594001B6813F4804FDAD0174B1B68002BD6DD21
:1075A400164BD3F804351068049050680390029188
:1075B40092680192174A009273221249012005F041
:1075C40049FEC4E70B4B1B6813F4804FBFD00A4B32
:1075D4001B68002BBBDD094BD3F8043501910E4A1F
:1075E40000927B220749012005F034FEAFE707B083
:1075F4005DF804FB6C2E0020682E00200010014072
:10760400C045040092450400E4450400182E0020FF
:10761400A4450400044604002846040000B583B0D1
:1076240001460023ADF80030044B01936A4644F24E
:107634000200FFF743FF03B05DF804FB2446040097
:1076440010B40346044C006859689A68DB680FC498
:107654005DF8044B704700BFE43300200B4B0C4A29
:1076640092E8030083E8030003F10802094903C90F
:1076740082E80300DA79042161F30712DA711A7AD5
:10768400022161F387121A72704700BFE4330020AD
:1076940060000010A400001000487047E43300208C
:1076A40000231F2B09D8074901EBC30000224280A5
:1076B400426001F833200133F3E7034B00221A60E0
:1076C400704700BFF4330020F434002030B4054682
:1076D4000F4B1B6800240AE01F230E4A12F83300E4
:1076E400A0B102EBC3025288AA4207D001341F2C76
:1076F4000BD85A1E002BEFD01346EEE7054A02EBD7
:10770400C30252688A42F1D100E0002030BC7047C5
:10771400F4340020F433002030B40A4A13680A4CCD
:1077240004EBC30568806960012104F833100B443D
:107734001360202B01D030BC7047134600221A601E
:10774400F9E700BFF4340020F4330020C0F30C0345
:107754008B4204D2C91A0844A0F500507047C91AD4
:1077640008447047C37D002B42D0C3780A7802F0E6
:10777400800203F07F0313430B7002780B7803F04D
:107784007F0343EAC2130B700378002B41D030B45B
:107794008378082B14BF002201224B7803F07F0367
:1077A40043EAC2134B70C58803F08003C5F3861403
:1077B40023434B708A7802F0030242EA8502D2B274
:1077C4008A70057A02F0FC02C5F3C10422438A7070
:1077D400CB7803F01F0343EA4513DBB2CB70427A44
:1077E40003F0E00302F01F021343CB7030BC704778
:1077F400C3780A7802F0BF029B0103F040031343ED
:107804000B70027903F0C00302F03F0213430B70C4
:10781400B3E770470023032B31D810B402E00133DF
:10782400032B28D8C3EBC302164C04EB021292F8C4
:107834004820012AF3D1C3EBC30204EB0212948A59
:10784400C2899442EBD1C3EBC3020E4C04EB021287
:10785400D2888A42E3D1C3EBC30204EB0212B2F82A
:10786400582012B1848AA242D9D1C3EBC30305487C
:1078740000EB031000E000205DF8044B704700208B
:10788400704700BFAC350020002300E00133032B18
:1078940016D8C3EBC3020B4901EB021292F848203D
:1078A400022AF3D1C3EBC30201EB0212918A828A4A
:1078B4009142EBD1C3EBC303024800EB03107047C2
:1078C40000207047AC35002008B904207047082018
:1078D400704730B403460C460978C17000214162F8
:1078E400A1680B2903D8217BF9B1012100E0012112
:1078F40019700020987029B1A1680731C9080139AD
:10790400597218720121D97503F10C056169206956
:1079140085E80300E1899982A1691962217F99753B
:10792400216AD9629A6230BC70470021E0E7000006
:107934000021164B1B688B4226D90023144A02EB04
:10794400C10252689A421DD910B4114A52F831202A
:1079540002EBC30412F8332082420DD001330C4AE7
:1079640002EBC10252689A42EFD80131074B1B68FF
:107974008B4205D90023F2E760685DF8044B704739
:107984000020FAE70131D4E700207047F8340020E2
:10799400FC34002070B58CB006460D4614462C22EB
:1079A400002101A81CF0BEFA0F238DF80430ADF8B5
:1079B40008604FF0000365F300038DF80A308DF87A
:1079C4000B4001A801F05AFA0CB070BD30B58DB06F
:1079D40005460C462C22002101A81CF0A3FA102312
:1079E4008DF8043002958DF80C4001A801F046FA98
:1079F4000DB030BD00B58DB010B913F1020F06D132
:107A0400074B186804F044FA0DB05DF804FB01223A
:107A14008DF80420029301A801F030FAF0E700BFCA
:107A24000C350020D0B50446037853B1E3691F0A2E
:107A34001E06E188A069FFF789FE301847F10001AE
:107A4400D0BD7846FFF7EAFDF0E70000F8B505463B
:107A5400002400E00134032C22D8C4EBC403114AEF
:107A640002EB031393F84830022BF3D1C4EBC403A5
:107A740002EB03139A8AAB8A9A42EBD12846FFF7AA
:107A8400D1FF06460F46C4EBC403064800EB0310BF
:107A9400FFF7C8FF8F4208BF8642DBD2012000E017
:107AA4000020F8BDAC35002070B5064603783BB124
:107AB4003046FFF7B7FF04460D46B18A002004E0C4
:107AC4007846FFF7ABFDF3E70130072810D8030130
:107AD400084AD35A8B42F7D102EB0013D3E90223AD
:107AE400AB4208BFA242EFD1024B03EB001000E00F
:107AF400002070BD1035002038B504460D460378CB
:107B04000BB1002304E07846FFF788FDF9E7013361
:107B1400072B09D8A08A1A010F498A5A9042F6D134
:107B24001B010A460021D1520C4A1368591C1160EA
:107B340003F00703A08A1A010749885255B16278F5
:107B4400054D05EB0315AA702046FFF76BFFC5E949
:107B5400020138BD0022F3E71035002090350020E3
:107B6400F8B5069C002960D01E460F46156851687A
:107B7400D2F808C0D368E5602161C4F814C0A361D9
:107B840015695169E5612162002363700278D209A5
:107B940022705AB30423BB4249D8E17D41B3037830
:107BA40003F07F03E3700023A3709AB143789B0131
:107BB40003F4FE53827843EA9203E3808378DB0084
:107BC40003F01803C27843EA52132372C37803F014
:107BD4001F036372002363623378032B21D8327846
:107BE400144B53F82230E3620020F8BD0123D2E79E
:107BF4000178C1F38011E170017801F03F01217136
:107C040042B190F90130002B02DB0423A370CCE7CE
:107C14000823FBE70421A1700B44BB42C5D909200A
:107C2400E3E77846FFF7FAFCD9E70920DDE7092006
:107C3400DBE700BF8C47040070B50C461D46037893
:107C44009BB104263244A26000F10C032360836AD2
:107C54006360C36AE36000232374204604F08CFC51
:107C640010B963691E442E6070BD0126EAE72DE950
:107C7400F0418EB00D4616461C46804600282DD095
:107C8400002D2FD0002C31D0636A0233059304F108
:107C94000C00E378002B2DD00121A27801AF3B46E4
:107CA400082A14BF0022012204F037FA0697CDF8FF
:107CB4001C80B2B2ADF820200B9515440C95A37826
:107CC4008DF83430237B022B16D00023ADF82830F6
:107CD40005A804F01AFA0EB0BDE8F0817846FFF763
:107CE4009DFCCDE77846FFF799FCCBE77846FFF794
:107CF40095FCC9E70221D0E723692BB123690993D5
:107D04001023ADF82830E3E77846FFF787FCF5E762
:107D14002DE9F04188B004460D46C37D002B3CD0CC
:107D2400082605FB06F8637AAB4238D0257201AB0E
:107D3400324602A92046FFF77FFF074648BB4DB9EC
:107D440094F8533033B9A369C3F30C03E3800123DC
:107D540084F85330E37D7BB994F8523063B91DBB8A
:107D6400E06EB4F84A10A27823468A1A0146FFF757
:107D74007EFF012384F8523007992046FFF7F2FC76
:107D8400E16E3246414401981CF0A3F802A804F0C5
:107D940019FC384608B0BDE8F0810C26C1E7B4F8F8
:107DA4004A60A6EB0806C1E77846FFF737FCD7E739
:107DB40070B505460E4609B100230B6095F8504096
:107DC400002104E0631C85F850300134E4B26B7A7E
:107DD400A34210D3EA6C0123A3401A42F5D12146F1
:107DE4002846FFF795FF014628B9002EEAD03368EC
:107DF40001333360E6E7084670BDF0B589B0044648
:107E04000E46154683789A18C37D63B10B239A42B4
:107E140021D801AB02A92046FFF70EFF074620B187
:107E2400384609B0F0BD0F23F1E707992046FFF764
:107E340099FCE37D43B12A46314601981CF049F888
:107E440002A804F0BFFBEBE723462A46019930461B
:107E5400FFF70DFFF4E70927E2E7000010B5044639
:107E640090F84830012B0CD103F000FA237B012B4E
:107E74000BD0094BD968014404F1300003F0CCF96C
:107E840010BD7846FFF7CAFBEEE7A17D024BDA6826
:107E94001B6903FB0121EEE79435002030B583B064
:107EA400002403E02846FFF7D9FF0134032C18D837
:107EB400C4EBC4030C4A02EB031393F84830012BC0
:107EC400F3D100230193C4EBC40502EB051501A90A
:107ED4002846FFF76DFF0428E4D0019B002BE4D073
:107EE400E0E703B030BD00BFAC35002038B5044630
:107EF40090F84830022B09D1064B1D6803F0B6F9FF
:107F0400411904F1300003F087F938BD7846FFF7D2
:107F140085FBF1E79435002038B5044690F84830E5
:107F2400022B10D10A4B5D7D5A689B6803FB052523
:107F340003F09CF9411904F1500003F06DF9012399
:107F440084F8683038BD7846FFF768FBEAE700BF7D
:107F54009435002010B50446808A02F087FC01287D
:107F64001CD1237BE3B194F91620002A1ADBE27DAD
:107F74004AB1022B18D094F90330002B16DBA378F6
:107F8400B3B900200BE0E2780AB9012B12D12378AF
:107F940093B9A378042B11D1002000E0102010BD68
:107FA4001020FCE70720FAE71020F8E70720F6E79F
:107FB4000720F4E70720F2E70020F0E70720EEE7C8
:107FC40038B50446C2698169808A06F01DFB0546FE
:107FD40008B9284638BDE169002201F00101A08AF0
:107FE400FFF7D8FCF5E700002DE9F04780460E4680
:107FF40017464B1EDBB2012B0FD8B7F5C07F10D844
:108004000024032C1AD8C4EBC403314A02EB031333
:1080140093F848304BB10134F3E77846FFF7FEFAA2
:10802400EBE77846FFF7FAFAEAE7C4EBC40502EB9C
:108034000515384608F001FCE86600E000255DB34C
:10804400EB6E002B42D043462C4608F1300ED3F899
:1080540000C058689968DA68C4F800C06060A1601C
:10806400E260103310347345F1D10023EB64A5F8BA
:108074004A70012E13D06FF00103AB62002385F820
:108084006830144BAB652D66134BAB632D64012034
:1080940002F0C6F885F848602846BDE8F0870F4B23
:1080A4001B7D85F85130002385F8523085F8533014
:1080B40085F85030D8F828206A65A5F858306FF054
:1080C4000103AB62064BAB632D64E0E71D46E3E7B7
:1080D400AC350020678A0200258402009435002014
:1080E4007184020000B585B000228DF80F20A0B184
:1080F4000B46024602320A600DF10F01184604F0E5
:1081040008F89DF80F3043B10C4B1B6813F0040FB3
:1081140003D00B4B1B68032B04DC9DF80F0005B048
:108124005DF804FB074BD3F80435074A009240F28C
:1081340037420649042005F08DF8EEE76C2E002046
:10814400682E00200010014080460400744604009C
:108154002DE9F0438FB004460E4615461F46D0F86D
:108164001890037823B1C1884846FFF7EFFAA0615D
:1081740004F10C00E378002B37D00121A2780DF133
:1081840028084346082A14BF0022012203F0C5FF31
:10819400C4F81890CDF808800396A378EA1A92B22E
:1081A400ADF810203244089207978DF8243000234C
:1081B400ADF81830E37863B3237B022B17D0254640
:1081C400002345F8243F2A462179206A0FF08CFBCE
:1081D400606A90B101A9FFF785FF00283DD12A46C6
:1081E4002179206A0FF080FBF2E70221C6E7102311
:1081F400ADF8183023690593E1E7237B022B30D1D6
:1082040004F10C01E0890FF021FC0028D4D10520F1
:1082140024E0237B012B01D005201FE0E389ADF886
:108224000030A38AADF802300025012D13D8214671
:10823400002341F8243F0EAB03EB450333F8380C1D
:108244000FF06FFB01A9606AFFF74CFF08B9013515
:10825400EBE7002002E0052000E000200FB0BDE8BD
:10826400F0830520FAE7000070B5F0B00E4614461E
:108274001D4610AB0A4601462046FFF769FF50B180
:10828400214B1B6813F0040F03D0204B1B68052BF4
:108294002DDC70B070BD2046FFF792FE0028F8D1A7
:1082A40003AB01228DF80C20A28AADF80E20002227
:1082B40004928DF8142010AA0692A178711AADF8D0
:1082C4001C1008AA93E8030082E803000AAB2169A2
:1082D400E06883E80300A37D8DF83830236A0C93AB
:1082E400636A0D930F9505A800F0C8FDD1E7084B0C
:1082F400D3F80435074A009240F20E72064906206C
:1083040004F0A8FFC5E700BF6C2E0020682E0020F3
:1083140000100140944604007446040010B504465D
:10832400C06E08F08EFA04F1300002F05DFF94F89C
:108334004830022B0AD07022002120461BF0F2FDA7
:10834400002084F8480001F06BFF10BD04F15000D8
:1083540002F04AFFEFE710B58CB0044690F84830BD
:10836400012B0CD101238DF80430636D029301A815
:1083740000F084FD2046FFF7D1FF0CB010BD784615
:10838400FFF74CF9EEE7000030B585B00D46044622
:10839400D0B1E18894F84830022B19D094F84830D1
:1083A400022B1ED02946606DFFF710FB2046FFF715
:1083B400B5FF164B1B6813F0040F03D0144B1B6856
:1083C400032B13DC05B030BD7846FFF727F9E0E74F
:1083D400637813F0020FE1D00022A08A1BF0D0F8DA
:1083E400DCE700212046FFF787FBDBE7094BD3F8E6
:1083F400043594F8482002950192074A009240F20D
:108404002D220649042004F025FFDBE76C2E002012
:10841400682E002000100140C04604007446040089
:1084240008B508460021FFF7AFFF08BD08B5037B78
:10843400012B02D0FFF78FFF08BD0121FFF7A4FF36
:10844400FAE7000008B590F8513053B1013B80F8C9
:108454005130002380F85030034B186803F018FDA6
:1084640008BDFFF7E3FFFBE70C35002010B50C4611
:1084740091F84830012B03D12046FFF7E3FF10BDEC
:108484007846FFF7CBF8F7E7062976D1F0B585B043
:1084940015460678B20102F4FE5241788478C37816
:1084A4001B0443EA0463047943EA042344791C4328
:1084B40076B242EA91012846FFF7ACF90746E0B1EB
:1084C400002E2FDBC289A98A8A422BD02B4B1B6832
:1084D40013F0040F3ED02A4B1B68012B3ADD294BC5
:1084E400D3F8043502910192274A00924FF4D162E5
:1084F4002649022004F0AEFE2CE0204B1B6813F04A
:10850400040F27D01E4B1B68012B23DD1D4BD3F812
:1085140004351F4A009240F284621C49022004F090
:1085240099FE17E0002E17DBFD6C2543FD64BCB1FA
:108534003B78D3B17B7A5A1C01239340013B9D4283
:1085440017D0002187F850103846FFF731FC384621
:10855400FFF784FC05B0F0BDAB8AA7F85830E3E719
:1085640003213846FFF710FFF4E77846FFF756F883
:10857400E0E73846FFF7EFFEECE770476C2E00208B
:10858400682E0020001001401447040074460400C3
:10859400E44604002DE9F0418AB007460E4614462D
:1085A4001D461046FFF70CFD50B994F80380B8F14E
:1085B400000F08D12B46224631463846FFF764FFA8
:1085C4000AB0BDE8F0814046FFF7B2F90246002840
:1085D400F6D08DF80480236A0793A38AADF812308D
:1085E40005AB2169E06883E80300A37D8DF82030A2
:1085F4000297039623788DF81030E36A099329468D
:1086040001A89047DCE710B5547814F0010F03D0AB
:10861400D47D14B1FFF7BEFF10BDFFF725FEFBE7C5
:10862400F8B505460E4614461F46537813F0020F5C
:1086340006D13B462246711E681CFFF7E4FFF8BDD5
:108644000123C9B21AF0F0FEF3E70000F0B5C7B099
:108654000F46164682783244C37D2BB14FF48073A3
:1086640093427CD3002303E04FF4C073F8E7013353
:10867400032B1AD8C3EBC3043B4D05EB041494F845
:1086840048100129F3D1C3EBC30105EB01118C8A16
:10869400818A8C42EBD1C3EBC30105EB0111CC8978
:1086A400C1898C42E3D1082552E00121FFF79CFCEB
:1086B4000446002855D032463946C06E1BF009FCEA
:1086C4000023459345A92046FFF772FB054608B1F0
:1086D400042840D1459B0BBB244B1B6813F0040FAB
:1086E40035D0234B1B68032B31DDB4F84A70802F3F
:1086F40028BF80270023BB4214D2E26ED25C1D49FE
:108704000D68100959002E5C04A800F8136002F0EB
:108714000F020131AA5C42540133ECE72046FFF713
:108724009DFBD9E704AA002302F8173003F1804324
:1087340003F58833D3F8043502920F4A01920F4AA5
:10874400009240F26D520E49042004F083FD00258E
:10875400284647B0F0BD2046FFF7E0FDF8E70925BD
:10876400F6E70425F4E700BFAC3500206C2E0020AA
:10877400682E0020702E0020584704008444040012
:108784007446040070B504460D461646FFF7E2FB36
:1087940030B923782BB1324629462046FFF756FFDD
:1087A40070BD324629462046FFF727FBF8E7000054
:1087B40038B504460D46CB695B780371CB691B78E9
:1087C40083F00103C370CB6943628B8A0B2B07D8F8
:1087D400CB7A002B3DD10B7B012B02D0002300E090
:1087E40001232370002B39D0287B022833D0FFF7D4
:1087F4006BF8A070AB8A03440B331B4A82FB032340
:108804005B10013B6372002323720023E37504F1C0
:108814000C0395E8030083E80300AB6923622B890A
:10882400A382AB7AA3752B6AA362DF23E362284693
:108834000FF080FA20B12B78012B12D0FF23E362D2
:1088440020461AF077FE18B1E36A43F02003E3628E
:1088540038BD0123C5E7054B987DC8E70423A37001
:10886400D3E72023EBE700BFABAAAA2A9435002064
:1088740010B54FF4E072002113481BF053FB05F0D0
:1088840075FF0024114B1C608022214610481BF008
:1088940049FB104B104A1A60104A5A604CF250328D
:1088A4009A600F49D9601A6104221A759C750822CE
:1088B4005A750C4803F0CCFA0B4B18600B4B1C6038
:1088C4000B4806F057F810BDAC3500209035002059
:1088D400103500209435002080969800F04902005D
:1088E40020A10700598A02000C350020F83400202A
:1088F400F979020008B505F07FFE08BD98B110B5FE
:108904008CB00446036983B1C36983B1836983B1BD
:1089140001466846FFF74CFFA28A21696846FFF7C3
:1089240031FF0CB010BD0E2070470E20F9E70E2069
:10893400F7E70E20F5E790B110B58CB00A4604466F
:10894400436873B1836973B101466846FEF7C1FF9A
:10895400A26861686846FFF715FF0CB010BD0E20D1
:1089640070470E20F9E70E20F7E70000037B012B88
:1089740001D00020704710B58CB000230193CDF8CE
:108984000730C288C2F3861492008DF801200A0EC3
:108994008DF802200A0C8DF803200A0A8DF80420B1
:1089A4008DF805104278022A14BF0022012244EAFD
:1089B400C2128DF800200622059201228DF81C2097
:1089C400828AADF81E2008938DF80C30CDF810D0B3
:1089D400026A09928DF81830C389ADF81A30C36A57
:1089E4000B93837D43B98DF828306FF0010103A800
:1089F400FFF7A1FF0CB010BD024B5B7D8DF8283052
:108A0400F3E700BF9435002090F84830022B00D0E3
:108A1400704710B5044690F86830022B00D010BDA2
:108A2400C16CFFF7A3FF0028F9D1002384F8683054
:108A3400F5E7000010B5002407E0C4EBC4021301FD
:108A440003481844FFF7E0FF0134032CF5D910BDA7
:108A5400AC35002008B5FFF721FAFFF7EBFF012042
:108A640008BD10B50C4691F84830022B06D10223FC
:108A740084F868302046FFF7C7FF10BD7846FEF73C
:108A8400CDFDF4E72DE9F0438FB00446FEF7DEFF99
:108A9400002840F08E802046FFF706F8074600289D
:108AA4003CD12046FEF7F0FE054658B12046FEF7BD
:108AB400B9FF804689462846FEF7B4FF494508BFFA
:108AC400404553D3002D75D1667A731CE27D002A8C
:108AD40052D0082606FB03F6002A4FD04FF48073C9
:108AE400B3424ED3E188A069FEF730FE0146E26945
:108AF400A08A05F0E5FD00285CD13246022120461B
:108B0400FFF772FA0546002854D100212046FFF7EA
:108B14002DFF02210020FEF759FF4BE002AD26464F
:108B24000FCE0FC50FCE0FC596E80F0085E80F00D6
:108B3400BB788DF809307BB19DF8083073B19DF88E
:108B440011104B1C01219940013902A8FFF70EFFB7
:108B5400BB7813F0010F05D100252BE07846FEF712
:108B64005DFDECE72046FFF72BFAF5E705212846E3
:108B7400FFF70AFC3D46A7E70C26ABE74FF4C073AA
:108B8400AEE70E4B1B6813F0040F03D00C4B1B68AD
:108B9400002B01DC3D460DE00A4BD3F80435019669
:108BA400094A009240F292320849012004F052FB33
:108BB400F0E7002528460FB0BDE8F0836C2E0020B6
:108BC400682E002000100140684704007446040029
:108BD4002DE9F04782B007460E46154698461046E2
:108BE400FFF750FF00284ED004464F4B1B6813F08C
:108BF400040F03D04D4B1B68032B47DC2046FFF7C3
:108C040075F9237B012B4FD0E16C2B7A01229A401A
:108C1400114238D10A43E264A6F1040A2B7AEA7DB0
:108C2400002A49D04FF0080C0CFB03FC617A8B42FC
:108C340045D0002A48D00823534547D1A269AB69DF
:108C44009A420BD204F10C0E05F10C09B9E80F009D
:108C5400AEE80F0099E803008EE80300E06E524688
:108C6400391D60441BF035F96B7813F0020F32D1D3
:108C7400E66C2378002B35D0637A5A1C0123934089
:108C8400013B9E4232D002B0BDE8F087284BD3F8B6
:108C940004352A7A0192274A00924FF471722649C8
:108CA400042004F0D7FAA9E794F86830002BABD17C
:108CB4002046FFF731F9A7E74FF00C0CB4E70CEBB3
:108CC4000A03A4F84A30B9E70C23B5E70421204687
:108CD400FFF75AFBD7E701232A46F1B238461AF0C8
:108CE400A3FBC5E77846FEF799FCC5E7E16C20468F
:108CF400FFF73CFE6B7813F0020F0ED14346224679
:108D0400B4F84A10E06EFFF77EFC01212046FEF71E
:108D1400F3FE2046FFF702FBB5E70122E988A88AA3
:108D24001AF02EFCEAE700BF6C2E0020682E00200B
:108D3400001001407C470400744604002DE9F04112
:108D440090B000284CD00F4614461E468046002A98
:108D540048D004AB00933346FEF702FF054618B132
:108D6400284610B0BDE8F08104A8FFF7F3F80546E3
:108D74000028F5D12269E168208905F0A1FC0028CA
:108D8400EED104A81AF0D6FB28B19DF8113043F0B7
:108D940002038DF8113000230293039302A9608823
:108DA4000EF054FE38B19DF8113043F001038DF8F4
:108DB4001130039B08939DF81130002BD0D09DF8FF
:108DC400103033B1334604AA39464046FFF700FF5A
:108DD400C6E7334604AA39464046FFF721FCBFE7FD
:108DE4000E25BDE70E25BBE720B3F8B50E460546B4
:108DF400164B1F68012F1FD80024B4420FD205EB75
:108E0400C4035B68D3B115F8340015F93430002B72
:108E140016DBB8B1FEF78CFDB0B90134EDE70C4BAD
:108E240043F8375003EBC7035E600137074B1F60FD
:108E3400002002E00E2070470420F8BD0E20FCE75D
:108E44000B20FAE70F20F8E70F20F6E7F8340020AC
:108E5400FC340020084B196861B110B504E00648E1
:108E640004F062F9214624B10C680B79002BF9D087
:108E7400F5E710BD704700BF7037002038B50546D0
:108E840030B1104B1C68ACB10F4B01221A7004E0D6
:108E94007846FEF7C3FBF4E724683CB12379002B42
:108EA400FAD154F8043C28469847F5E7064B1B785A
:108EB400022B00D038BDFFF7CDFF034B00221A7000
:108EC400F8E700BF703700206C37002010B5044667
:108ED40030B100232372211D034804F0FAF810BDB9
:108EE4007846FEF79BFBF4E77037002010B5044684
:108EF40058B10A4B1B78013BDBB2012B09D8074B55
:108F040002221A700123237210BD7846FEF786FBF5
:108F1400EFE7211D024804F007F9F5E76C3700205C
:108F2400703700200A8883689B5A07339BB223F06A
:108F3400030313449BB20288043A934200D90023EA
:108F44000B80704710B582B004468368C91AADF827
:108F540006100DF10601FFF7E5FFBDF80630A06825
:108F6400184402B010BD0088043880B270474388AA
:108F74008268D018D152012383707047826800231D
:108F84009370438083807047073189B221F00301D5
:108F940089B2428883889A4204D29B1A99421EDC81
:108FA4000020704710B59A420FD90488A41AA14230
:108FB40017D98B4217D3032C03D983681344042293
:108FC4009A7000234380184604E0826813449B7817
:108FD4000BB1042010BDFFF7D1FF0020FAE70420F5
:108FE40070470020F6E70420F4E738B504460D4640
:108FF4008368828813448B4202D07846FEF70EFBC6
:109004000023AB70211D2046FFF78CFFA288A368C4
:1090140013449B78042B00D038BD0023A380FBE7C6
:1090240010B50C468368428813448B4202D07846BC
:10903400FEF7F4FA0023A37010BD70B5054614467C
:109044000E46002944D0002D46D0B6F1005F08D961
:109054004FF08053D3F80C3103F50023B6EB832F84
:109064000ED3B6F5000F08D94FF08053D3F80C3166
:1090740003F50053B6EB832F02D37846FEF7CEFAFE
:10908400631E3344B3F1005F08D94FF08052D2F825
:109094000C2102F50022B3EB822F0ED3B3F5000F9F
:1090A40008D94FF08052D2F80C2102F50052B3EBEC
:1090B400822F02D37846FEF7B1FA042C10D92C8003
:1090C40000236B80AB80AE60043C3480B37070BD11
:1090D4007846FEF7A3FAB6E77846FEF79FFAB4E7B8
:1090E4007846FEF79BFAEAE738B50446A0B16288F1
:1090F400A36813449B78012B12D0EFF3108572B64A
:10910400A388A16819448B78032B0DD02046FFF760
:1091140035FF05B962B638BD7846FEF77FFAE6E753
:109124007846FEF77BFAE8E72046FFF70BFFA368D3
:10913400C31A638000238370EBE72DE9F0410E46E8
:1091440014460546D0B1EEB16A88AB6813449B78E7
:10915400012B1BD024B32846FFF705FFA04221D3DF
:10916400EFF3108872B621462846FFF70DFF074635
:1091740080B1B8F1000F16D162B614E07846FEF75C
:109184004DFAE0E77846FEF749FADDE77846FEF760
:1091940045FADFE721462846FFF7E9FE3060E8E7B5
:1091A400092700E009273846BDE8F081F8B50C46E8
:1091B40015460646E0B1FCB1A378012B20D12388E3
:1091C400AB4221D325B3EFF3108772B62580022377
:1091D400A370F1183046FFF7A5FE7388B288934256
:1091E40003D0B268134400229A7007B962B6F8BD7E
:1091F4007846FEF713FADEE77846FEF70FFADBE768
:109204007846FEF70BFADAE77846FEF707FAD9E76D
:109214007846FEF703FAD6E770B50C46054690B1DA
:10922400ACB1EFF3108672B6AA88AB6813449A788F
:10923400042A10D09A78022A15D0032A18D00520BF
:1092440006B962B670BD7846FEF7E8F9E8E77846F5
:10925400FEF7E4F9E5E7291D2846FFF763FEAA882F
:10926400AB681344E6E703229A7023600020E7E723
:109274007846FEF7D3F90020E2E738B5044680B11A
:10928400EFF3108572B6A088A16801448B78042B93
:109294000BD08878022814BF0020012005B962B6DB
:1092A40038BD7846FEF7BAF9EAE72046FFF74AFEEA
:1092B4000146EEE738B5054678B1EFF3108472B68F
:1092C400A888A96801448878C31EDBB2012B08D89A
:1092D4002846FFF737FE0146F5E77846FEF79EF984
:1092E400EBE7022814BF0020012004B962B638BDA0
:1092F40070B50C46064678B194B1EFF3108572B69A
:10930400A378012B10D0032B13D121463046FFF74D
:109314006CFE05B962B670BD7846FEF77FF9EBE7DF
:109324007846FEF77BF9E8E721463046FFF778FEFA
:10933400EFE77846FEF772F9EBE710B5EFF3108428
:1093440072B68388816819448B78042B06D0887898
:10935400B0FA80F0400904B962B610BDFFF7F2FD1F
:109364000146F4E708B5064B986800221A605A6073
:109374009A60DA601A615A619A6104F051FF08BD7B
:109384007437002000B585B00A4BDB6802228DF8E3
:10939400002001934FF480530293074A6946012049
:1093A40001F07AF918B9012005B05DF804FB00203A
:1093B400FAE700BF743700209037002000B585B06D
:1093C4000A4B1B6802228DF8002001934FF480534E
:1093D4000293074A6946012001F05EF918B9012099
:1093E40005B05DF804FB0020FAE700BF94370020C5
:1093F40090370020164BDA68137951795B1A03F51C
:109404007F2303F6FF7302EB03339A4205D002F580
:1094140080520F4BDA600320704700B585B00D4BC6
:109424001B6801208DF8000001930B4B0393042368
:1094340002930A4A694601F02FF918B1002005B0D9
:109444005DF804FB024B01221A760220F7E700BF05
:10945400743700209437002098370020903700207C
:1094640000B585B00C4BDA680C4B1B680433012043
:109474008DF800000192039340F6FC730293084AAE
:10948400694601F009F928B90120034B187605B0A3
:109494005DF804FB0020FAE77437002094370020BD
:1094A4009037002000B585B00A4B1B6801208DF869
:1094B40000000193084B039304230293074A69466F
:1094C40001F0EAF818B9012005B05DF804FB0020AA
:1094D400FAE700BF9437002080370020903700203F
:1094E40010B584B0104BDA681478104B1B68043341
:1094F40001208DF800000193039202940C4A6946FE
:1095040001F0CAF870B9094B1B6804F0FC041C4450
:109514000434054B5C61D9680A780A441A61012055
:1095240004B010BD0020FBE77437002094370020FE
:109534009037002008B50023092B09D8064A52F8B1
:109544002320824201D00133F6E7044A536002E04B
:109554007846FEF763F808BD9C4704007437002082
:1095640010B5214BDB6853B11F4B1B7E5BB91E4BFF
:109574005B68092B26D97846FEF750F822E0784636
:10958400FEF74CF8F0E77846FEF748F8EFE7164A9E
:10959400536801335360092B21D97846FEF73EF80E
:1095A4001DE0114B00225A6019E00F4B1B7E1BB1CA
:1095B4000D4B02221A7012E0FFF7D4FE0FE00A4BA3
:1095C4001B7E83B9084B5A68084B53F822309847DE
:1095D40004460228E9D00328E3D00128D7D0012C7F
:1095E400EDD0032CEBD010BD743700209C47040051
:1095F400104B1B681B685A1E12F1030F18D8C3F3D3
:109604000B020AB10020704710B50B4AD360002347
:10961400137653760124147093600848FFF78AFF89
:109624000749204601F026F8FFF79AFF204610BDAF
:10963400002070479437002074370020899302007B
:109644004996020008B50B78032B06D00B4B1B7808
:10965400012B06D0022B0BD008BD084B00221A7632
:10966400F4E7064B1B7E002BF6D1FFF779FFF3E7F7
:109674000B78032BF0D1FFF775FEEDE7743700206C
:1096840000B585B0174BDB6818784FF6FF7203F509
:109694008051184405F024F9E0B10246114BD96811
:1096A4000B780B44984217D00E4B5B7E83B10E4B64
:1096B40001208DF8000001920393042302930B4AC6
:1096C400694600F0E9FF48B90120064B187606E028
:1096D400074BEDE7012002E0012000E0002005B087
:1096E4005DF804FB74370020C04904009037002063
:1096F400BC49040008B5104BDB681878002203F558
:109704008051184405F0ECF808B1012008BD0A4B5B
:10971400DA68137951795B1A03F57F2303F6FF7333
:1097240002EB03339A4205D002F58052024BDA6011
:109734000320EBE70220E9E774370020F0B585B099
:10974400514BDE6872793379591E8A4214D006F57A
:1097540080510D780D444D490968081D0F7907445F
:109764009B1A06EB03366B88013B9BB247F6FE62FD
:10977400934260D92C461AE00120434B58767EE090
:109784007846FDF74BFF15E024F47F6424F00F04C2
:1097940004F5805423781C44A64247D9A54247D2F5
:1097A4006388013B9BB247F6FE62934211D923883A
:1097B400002BE5D0238804EB830323F47F6222F09B
:1097C4000F029342E0D06288B2F5FE4FDCD01C4613
:1097D400E2E725462FE07846FDF720FF15E024F464
:1097E4007F6424F00F0404F5805423781C44A642BB
:1097F40020D9A5423BD26388013B9BB247F6FE6267
:10980400934211D92388002BE5D0238804EB8303EA
:1098140023F47F6222F00F029342E0D06288B2F513
:10982400FE4FDCD01C46E2E7254604E0002502E0BA
:10983400002500E00025E5B1144B19686A8801F59C
:109844008051384605F04CF8074690B101200E4B84
:1098540018768DF8000001950D4B039304230293B1
:109864000C4A694600F018FF58B92C46CAE700258F
:10987400E1E7B5FA85F56D09034B5D76012005B086
:10988400F0BD0020FBE700BF7437002094370020B0
:10989400B8490400903700202DE9F04186B0644BAC
:1098A4001B692BB1624B5B6933B14FF0000846E092
:1098B4007846FDF7B3FEF5E77846FDF7AFFEF4E72B
:1098C4007846FDF7ABFE15E025F47F6525F00F051E
:1098D40005F580552B781D44AF421CD9AC421ED2ED
:1098E4006B88013B9BB247F6FE62934211D92B88E9
:1098F400002BE5D02B8805EB830323F47F6222F051
:109904000F029342E0D06A88B2F5FE4FDCD01D46C8
:10991400E2E72C4600E000241CB100943AE0002465
:10992400FAE700230093019B002B5CD14FF0010860
:10993400002C77D0628847F6FF739A4272D0B8F150
:10994400000F73D13A4B5A6922F47F6626F00F0652
:10995400B61A06F580561C69DF683B797A799B1A3A
:1099640007EB0337002301936388013B9BB247F65F
:10997400FE629342D1D92546B9E77846FDF74EFEFB
:1099840023E024F47F6424F00F0404F58054237846
:1099940023441C46A742C6D92388019A02EB8302BA
:1099A4009642C0D9009B634023F47F6323F00F03E6
:1099B400002BB8D16388013B9BB247F6FE618B4212
:1099C400B1D801922388002BD7D0238804EB8303DA
:1099D40023F47F6222F00F029342D2D06288B2F560
:1099E400FE4FD6D1CDE7124A526901208DF8080006
:1099F4000392009A059204930E4A02A900F04CFEC9
:109A040070B90B49019B23F003024B6913444B616A
:109A140014B1074B1C618BE77846FDF7FFFDF8E7AF
:109A2400002000E0012006B0BDE8F0810120FAE743
:109A3400743700209037002008B54FF010235B697D
:109A4400B3F1FF3F09D04FF010235B692BB14FF006
:109A540010235B69A3F5805305E04FF080525169F0
:109A6400136903FB01F3A3F58053024A1360FFF764
:109A7400BFFD08BD9437002010B50446B0B1104BAB
:109A84001B78BBB10E4BD968E3685879A3EB00325D
:109A9400914211D31A79121A02F57F2202F6FF724B
:109AA40003EB0233994209D8012004E07846FDF71C
:109AB400B5FDE4E7002010BD0020FCE70020FAE734
:109AC40074370020024B1878003818BF0120704703
:109AD4007437002010B504460E4B1B7893B92378D5
:109AE400032B13D10B4B9C60E268DA6000225A60AE
:109AF4001A76012018705A76074900F0BBFDFFF76B
:109B04002FFD10BD7846FDF789FDE8E77846FDF79F
:109B140085FDE7E77437002049960200014B186879
:109B2400704700BF9437002010B5044680B16368C5
:109B34001BB123680BB1A36813B97846FDF76EFD1A
:109B4400A3685A1E134207D10023E360236110BDAA
:109B54007846FDF763FDEAE77846FDF75FFDF3E736
:109B6400F8B500B30F4604468368F3B1EFF31085EC
:109B740072B60369C268934211D00168426886686C
:109B8400013E334003FB021117B138461AF0A1F924
:109B940023690133236155B962B62846F8BD05B976
:109BA40062B60525F9E70E25F7E70925F5E700254F
:109BB400F3E700000246C0F30B0040BB49B310B406
:109BC40001F6FF710C0B144B0221C3F80415124B60
:109BD400D3F80034002BFAD001460AE00E4BC3F848
:109BE40008250D4BD3F80034002BFAD002F580522F
:109BF4000131A142F2D3084B0022C3F80425064BDD
:109C0400D3F80034002BFAD05DF8044B70471020D1
:109C140070470920704700BF00E0014010F0030FB7
:109C24002FD110B4044611F0030F2CD16AB312F0F3
:109C3400030F2CD19008174B0122C3F80425154BB0
:109C4400D3F80034002BFAD002E004340431104677
:109C5400421E50B10B68B3F1FF3FF6D023600D4BA9
:109C6400D3F80034002BFAD0EFE70A4B0022C3F8F4
:109C74000425084BD3F80034002BFAD05DF8044BCC
:109C84007047102070471020F8E70920F6E70920F4
:109C9400F4E700BF00E001404388012B05D0022B0C
:109CA40001D1043008600120704704304860FAE7AD
:109CB40008B508220221084804F029F938B1074AF6
:109CC40091684160127B027204F058F908BD04489F
:109CD40004F07EFAFAE700BFA4370020F037002032
:109CE4002C2E00200E4B1B78CBB910B50D4B5C68A5
:109CF40004F50054B4F1807F00D910BD0422012181
:109D0400094804F004F930B14460054A0121117096
:109D140004F034F9F1E7054804F05AFAEDE7704726
:109D240004380020F0370020A43700201C2E002027
:109D340010B5044608B1A04710BD7846FDF76EFC87
:109D4400F9E7000008B501210C4804F03FF920B9F7
:109D540002210A4804F03AF928B1094804F038FA13
:109D6400FFF7C0FF08BD074A0023136053609360E8
:109D7400D3601361044A1370F2E700BFA4370020D4
:109D84004C2E0020F0370020C837002000B58DB0DD
:109D94000B4B1B7B012B0ED0094A926804928DF861
:109DA4000830039002238DF8043001A8FFF766F809
:109DB4000DB05DF804FB024A9268013A0492EEE7A2
:109DC400F037002010B58CB00C4682B94B88012BBB
:109DD40020D1134B1B7833B16268124B5A60104B7D
:109DE40000221A7016E07846FDF718FCF4E7032AFF
:109DF40012D12C22002101A81AF094F811238DF815
:109E040004300394084BDA6805921B69069301A891
:109E1400FFF734F80CB010BD7846FDF7FFFBE8E718
:109E240004380020F0370020A437002000B583B0A8
:109E340001F096FF0021009101916B46144A1548E8
:109E440003F05AFF009B6BB1019A5AB1186812498A
:109E540088601879087393420CD91B7953B900228E
:109E64000A600AE00C4B00221A609A601A73FFF72A
:109E74001FFF02E01268084B1A60074B1A685A6009
:109E8400FFF730FF01F0B0FF03B05DF804FB00BF43
:109E94009D9C0200A4370020F037002008B504F090
:109EA400EBF9A0F5805008BD00B587B000230093FE
:109EB40001930393049305930293FFF7EFFF00903C
:109EC40001230193064B03936946064804F035F9D0
:109ED40010B907B05DF804FB034804F079F9F8E71A
:109EE400C99D0200A43700203C2E002010B50B4B66
:109EF40000241C605C609C60DC601C6101F0B6F9AD
:109F0400074B5860074A9A60074ADA601C615C6133
:109F1400064B1C70FFF7C8FF10BD00BFF0370020D0
:109F2400CC37002061A0020000879303053800208D
:109F340008B5084B1B7803B108BD0748074B0360FD
:109F440000F060FE064801F029F9024B01221A7064
:109F5400F2E700BFA0370020E437002089A1020007
:109F6400CC37002010B501F0FBFE164B1B7B0BBB5E
:109F7400144B9B7B1BBB134B1A8A41F282639A429C
:109F840004D8114B1B782BB1012300E001231BB92A
:109F9400082410E00023FAE70A4B01221A73002474
:109FA4001C829A6801329A60FFF782FE2046FFF70E
:109FB400EDFE00E0082401F017FF204610BD082440
:109FC400F9E700BFF03700200538002010B501F094
:109FD400C7FE204B5B7B9BB11E4B9B7BF3B91D4B98
:109FE4001A8A41F282639A4204D81B4B1B782BB124
:109FF400012300E001239BB1012302E00023FAE7DF
:10A0040000231C460BB3134B00225A731B7B4BB12A
:10A01400012B0ED07846FDF701FB16E00023F0E794
:10A024000023EEE7FFF79EFF78B17846FDF7F6FAD6
:10A034000BE0084B00201860586018731882FFF773
:10A04400A5FEFFF735FEFFF74DFE01F0CDFE2046DD
:10A0540010BD00BFF03700200538002008B5214BA3
:10A064001B7B7BB1012B20D07846FDF7D7FA1D4A24
:10A07400138A013313821B4B5B8A13B1013B194AC8
:10A08400538208BD174B1A8A41F282639A4204D85C
:10A09400154B1B783BB1012300E00123002BE6D0D4
:10A0A400FFF794FFE7E70023F8E70E4B1B8A41F222
:10A0B4008262934204D80C4A127872B1012200E001
:10A0C4000122002AD3D042F2B012934207D9054BA1
:10A0D40001225A73FFF77AFFCDE70022F1E7FFF779
:10A0E40075FFC4E7F03700200538002010B5244B75
:10A0F4001B7B002B35D10446214B5B8A2BBB1AB941
:10A104001F4B9B688B4205D3FAB11D4B9B680133EF
:10A114008B421AD21A4B9B682A338B4223D3184B97
:10A124009B7B03BB164B996000221A605A601A820B
:10A1340042F6065159825A731A73FFF7B9FDFFF7B5
:10A14400D1FD2046FFF722FE0DE062B10C4B9B6867
:10A1540001338B4207D10A4B01225A73FFF736FFB2
:10A1640001E0012B00D010BD002AFCD1044B9B68F8
:10A174008B42F8D1024B01225A73FFF727FFF2E713
:10A18400F03700200378042B00D0704743681B7815
:10A19400002BFAD010B58468027E437E012A14BFD6
:10A1A40000220122416904F11000FFF79FFF10BD56
:10A1B40010B5184B1A685B689A4226D20446154BB0
:10A1C4001B7B012B14D0144B9A4213D2114B1A68E7
:10A1D4005B68403B9A4215D2EFF3108172B60D4A88
:10A1E4001368581C1060236001B962B6002010BDCA
:10A1F4000A4BE9E7074B01225A73FFF7E7FE0028F1
:10A20400EAD1E3E7FFF76EFDE6E7FFF76BFD0F200A
:10A21400EDE700BFF0370020FFFF7F0000E0FF0004
:10A2240008B538B10D4B01229A730D4A13680133F6
:10A23400136008BD0A4B1B685BB1094A1368013BF4
:10A244001360002BF5D1054B00229A73FFF7BEFE75
:10A25400EFE77846FDF7E2F9EFE700BFF0370020BB
:10A264009C37002000B58DB0ADF808008DF81020A3
:10A27400039103238DF8043001A8FEF7FFFD0DB010
:10A284005DF804FB014B9868704700BFF03700206D
:10A29400054B1B7B012B02D0034B98687047024B84
:10A2A40098680138704700BFF0370020044B9B6862
:10A2B400584010F0010F00D0013B1846704700BF12
:10A2C400F0370020014B187B704700BFF0370020A7
:10A2D40038B50B4B1B780BB1082038BD084B012255
:10A2E4001A70084DA8602973FFF7E2FC0020FFF7FD
:10A2F4004DFD00242C606C60FFF7F4FC2046ECE775
:10A30400C8370020F03700202DE9F041002624E072
:10A314002449BC2303FB04F3CA5A0132CA52022162
:10A32400284602F01BFD01370221284602F0E6FC14
:10A33400014679B11B4ABC2303FB0423D3F80880EC
:10A34400B8F1000FE4D0BC2303FB04F3D25A304627
:10A35400C047DDE797B90136F6B2022E1FD834465E
:10A36400BC2303FB06F308330E4D1D4404350221C0
:10A37400284602F0C3FC01460027DAE7284602F02B
:10A3840055FD0828E7D1074BBC2202FB0434A3681F
:10A39400002BE0D00022044930469847DBE7012037
:10A3A400BDE8F08110380020C447040008B5082334
:10A3B40083731023437300F11C034361032303736A
:10A3C40000F1180303610C3002F002FD08BD000027
:10A3D40008B50378012B06D0022B06D07846FDF78A
:10A3E4001DF9002002E0292000E0014808BD00BF5B
:10A3F400084C010008B50378012B07D0022B15D0B7
:10A404007846FDF70BF94FF4FA730AE08368591A9A
:10A4140021F0030303EB9103DB0003EB910303F54A
:10A42400FA730748984228BF184608BD8368591A2A
:10A43400090B044B03FB01F303F5FA73F1E700BFC7
:10A4440060850100084C010038B5044601210C3038
:10A4540002F054FC054678B1084BC4F89C30002344
:10A46400C4F8A0306168FFF7C5FFC4F8A800C4F8B9
:10A47400AC40012384F8B830284638BDA1A50200B9
:10A4840010B50446FFF7E0FF20B104F19C000EF084
:10A49400CBF900B910BD7846FDF7C0F8FAE7000023
:10A4A400F8B505460C46164617680378012B19D1F2
:10A4B4001249A1FB043149098B00AC68E41BB4EBDD
:10A4C400810F00D31C468CB1686827F00307E96844
:10A4D400224639443844FFF7A1FB58B933681C4479
:10A4E4003460F8BD7846FDF799F8E1E77846FDF762
:10A4F40095F8E9E77846FDF791F8EFE77D0CCEC7CC
:10A50400F8B506460C46154617680378022B17D192
:10A51400114BA3FB04231B0C1A03B468E41BB4EB18
:10A52400033F00D314467CB1706827F0030721462B
:10A534003844FFF73FFB58B92B681C442C60F8BD26
:10A544007846FDF76BF8E3E77846FDF767F8EBE745
:10A554007846FDF763F8EFE7EB0661C538B50546C5
:10A564000C4611462378012B06D0022B0FD07846D7
:10A57400FDF754F8002304E0021D2046FFF790FF86
:10A58400A3686868984214BF0020012038BD021DEA
:10A594002046FFF7B5FFA368F3E700002DE9F84371
:10A5A4000F46D1F8A850254B1B786BB90446A5F586
:10A5B400FA7501F10C080121404602F09FFB0646A2
:10A5C40048B14FF0000924E00EF06AF9002387F83F
:10A5D400B830BDE8F8837846FDF720F8F1E70EF0CF
:10A5E4005FF90121404602F0B9FB00237B6087F844
:10A5F400B830134B186801F04BFC3846FFF740FFA6
:10A60400E7E7A4EB00093046FFF7E2FE4844A8421E
:10A614000DD8A5EB090231463846FFF79FFF002805
:10A62400DDD101F075FAB0EB0409ECD5E9E70EF0E1
:10A6340037F93846FFF724FFCBE700BF0C3800207A
:10A644000838002010B5084801F002FC074B1860D8
:10A65400002406E0064BBC2000FB0430FFF7A6FEF6
:10A664000134022CF6D910BD0DA3020008380020D5
:10A674001038002038B504460D46022805D8054890
:10A68400BC2303FB0404A56038BD7846FCF7C6FF71
:10A69400F5E700BF103800202DE9F84305460C46C5
:10A6A4001746022816D8CCB12378012B1AD0022BD6
:10A6B4003ED16368C3F30B03002B31D1A368C3F30A
:10A6C4000B03002B30D1A368002B34D17846FCF760
:10A6D400A5FF30E07846FCF7A1FFE4E77846FCF7F5
:10A6E4009DFFE1E7636813F0030F0DD1E36813F0F6
:10A6F400030F0DD1A36813F0030F0DD1A368D3B9D1
:10A704007846FCF78BFF16E07846FCF787FFEDE709
:10A714007846FCF783FFEDE77846FCF77FFFEDE72B
:10A724007846FCF77BFFC9E77846FCF777FFCAE772
:10A734007846FCF773FFEFF3108872B6BC2606FB6D
:10A7440005F606F108032A4E1E440436002130465D
:10A7540002F0D4FA814678B30021304602F0FEFAC2
:10A7640020686168A268E368C9F80000C9F80410A9
:10A77400C9F80820C9F80C302FB11D4ABC2303FBCB
:10A7840005235B883B801A4ABC2303FB05235A88B4
:10A7940001325A8093F8B83083B9164B1B7813B141
:10A7A4000024A1460CE0124BBC2000FB0530FFF74F
:10A7B4004BFE8146002403E0042401E00024A1466A
:10A7C400B8F1000F00D162B6B9F1000F09D0BC2076
:10A7D40000FB05F09830064D284404300EF024F8B0
:10A7E40010B92046BDE8F8837846FCF717FFF8E770
:10A7F400103800200C38002038B50446EFF31085DB
:10A8040072B610B9164B1B6873B18CB1144A136835
:10A8140001331360124B1B68003B18BF0123114A1C
:10A82400137005B962B638BD7846FCF7F7FEECE75D
:10A834000B4B1C68013C1C6034B1EBE7BC2000FBF3
:10A844000420FFF71DFE0134022CE3D8064ABC2382
:10A8540003FB042393F8B830002BF4D1EEE700BFD8
:10A86400443A00200C3800201038002018B1830B23
:10A87400024AD05C70470020704700BFD4470400F0
:10A8840012DF704700B583B01378A3B1022B14D143
:10A89400072110F8013C163B152B31D8DFE803F0F3
:10A8A400593030303030303030303030303030307B
:10A8B4003030302E0F3A517DEBE70021E9E70229D1
:10A8C40001D007291CD110F8021C013901F02EFF18
:10A8D400B0B1264B1B6813F0400F11D0244B1B68FA
:10A8E400012B0DDD234BD3F804350190224A00924D
:10A8F40093222249022002F0ADFC01E0022902D099
:10A9040003B05DF804FB10F8021C0139C9B213F05E
:10A914003FFBF5E70229F3D110F8021C0139C9B253
:10A9240003F05AFF0028EBD0104B1B6813F0400FC4
:10A93400E6D00F4B1B68012BE2DD0E4BD3F8043538
:10A9440001900F4A0092A6220C49022002F082FCD8
:10A95400D6E701884FF6E4639942D1D110F8021C7E
:10A9640003390230FCF7A8FDCAE700BF6C2E0020B3
:10A97400682E002000100140144804000848040018
:10A984004048040070B58AB00EF000FD48B3064696
:10A9940000238DF8103005AC05460FCD0FC42B688D
:10A9A4002360727D052A04D9337D03F00F03072B3E
:10A9B4001ED1174B1A688AB104AB0393337DC3F3DA
:10A9C40003038DF80430737D062B1BD9063B8DF8E9
:10A9D400053006F11D03029301A8904730460EF09E
:10A9E400B5FC0EF0EFFC80F00100C0B20AB070BDFF
:10A9F400307D04AB063A06F11D0100F00F000DF0A6
:10AA04000DFAD6E700238DF805300293E4E700BF82
:10AA14004C3A00200B4B1B78032B00D0704700B539
:10AA24008DB0084B04221A702C22002101A819F0C1
:10AA340079FA1C238DF8043001A8FEF71FFA0DB033
:10AA44005DF804FB483A002070B582B0354B1B78A2
:10AA5400002B5CD1044600285DD0067A0F2E01D06D
:10AA6400062E5AD105F0E8FEE06870B1FCF7E8FD67
:10AA74000DF10700FFF704FF0546002848D19DF8B3
:10AA84000730012B04D0022542E0FCF7E7FDEFE795
:10AA9400FCF706FE00F06EFB304601F00FF9E0789B
:10AAA40000F092F900F000FF0DF040FE1E480EF099
:10AAB40025FD0DF057FBFFF7C5FD04F091FF00F0F5
:10AAC40053FD05F079FE05F03DFC204601F03CFD08
:10AAD400FDF7CEFE04F086FAFCF7EEFC08B106287A
:10AAE4001DD112480DF07CF92A200DF00DFA2B200F
:10AAF4000DF00AFA29200DF007FA16200DF004FAD9
:10AB04000B4B00221A60074B01221A7000E0082543
:10AB1400284602B070BD0E25FAE70725F8E705467A
:10AB2400F6E700BF483A002089A902005C2E002005
:10AB34004C3A002010B582B01E4B1B78012B0DD06F
:10AB44005AB282B3033BDBB2012B2ED80DF05CFE6C
:10AB5400044658BB174B02221A7027E00EF0D4FBB0
:10AB640001F004FDFDF7C6FEFCF7A6FC0446B8B1EF
:10AB7400062815D0104B1B6813F4804F16D00F4BCA
:10AB84001B68012B12DD0E4BD3F8043501900D4ADE
:10AB9400009240F2A7120C49022002F05BFB05E090
:10ABA40001F0B8F8D2E7082400E00824204602B0F7
:10ABB40010BD00BF483A00206C2E0020682E0020F3
:10ABC400001001406C4804000848040008B5094B13
:10ABD4001B78022B01D0082008BD064B03221A70F3
:10ABE40005480DF0C5FD0028F6D07846FCF716FDA3
:10ABF4000020F1E7483A002019AA020008B5FDF741
:10AC04007DFE08BD08B5FEF761F908BD08B5FEF77D
:10AC14006DF908BD08B500F00DFE002008BD08B5AB
:10AC240007F014F908BD0000064A136801331360E5
:10AC3400B3F1704F02D0034B1868704713460122DA
:10AC44001A60F8E7503A002010B5044618B1002302
:10AC54002360636010BD7846FCF7E0FCF7E738B585
:10AC64000C46054668B184B100236360EFF310839A
:10AC740072B62A686AB16A6854606C6003B962B6D5
:10AC840038BD7846FCF7CAFCEDE77846FCF7C6FC0D
:10AC9400EAE72C60F1E710B5044658B1EFF31083EE
:10ACA40072B6206808B142682260226832B103B9E2
:10ACB40062B610BD7846FCF7B1FCEFE76260F6E7D8
:10ACC40010B5044608B1206810BD7846FCF7A6FC10
:10ACD400F9E738B50C46054688B1A4B12046FFF71C
:10ACE400EFFF58B12846FFF7EBFF80B16B6822688D
:10ACF4005A6063686B602046FFF7A6FF38BD78464C
:10AD0400FCF78CFCE9E77846FCF788FCE6E794E876
:10AD1400030085E803002046FFF796FFEEE7037A79
:10AD240013B100230372704743681B680433436004
:10AD3400704710B584B00446416803681A1D9142F7
:10AD44000DD0636818682268516888421CD0636813
:10AD54001A6852681A600123237204B010BD01936B
:10AD6400029300238DF80C30029B1B68002BE8D063
:10AD7400626812689A4203D001A8FFF7D0FFF3E794
:10AD840001A8FFF7D6FFE8E7934202D0043B5360E3
:10AD9400DDE700235360DAE735DF704708B54FF08D
:10ADA400FF30FFF7F9FFBFF34F8F0549CA6802F47C
:10ADB400E062044B1343CB60BFF34F8F00BFFDE74A
:10ADC40000ED00E00400FA05072814D8DFE800F0DD
:10ADD400080C1504110F0A066420704714207047EC
:10ADE400FA2070471E2070474FF4FA7070473220E3
:10ADF40070474B207047FA20704796207047000038
:10AE0400024B5868103840B2704700BF00ED00E0B4
:10AE1400034600280FDB5B11084A52F823304242F4
:10AE240000F01F0002F01F0258BF504223FA00F046
:10AE340000F00100704700F11F03ECE700E100E0BF
:10AE440046DF7047F8B504460D464B1EDBB2012BB6
:10AE540009D8002323616361A361E3612046FFF7FE
:10AE6400EFFF012016E07846FCF7D8FBF1E7CA5C57
:10AE7400CE185200D2B2767842EAD612CA540133BE
:10AE84009BB20E2BF3D9CB7B5B00CB73002F08DB7B
:10AE94000130C0B2A8420BD8214611F9207F00230B
:10AEA400EFE794F82F3083F0870384F82F30EFE72F
:10AEB400F8BD2DE9F04190B084460C4696461F46F5
:10AEC40002F10F084FEA281604AD0068DCF80410FC
:10AED400DCF80820DCF80C300FC50EF00F055FEA33
:10AEE400181302D07DB1002300E00023984663B11B
:10AEF400012104A8FFF7A6FFB8F1000F1AD0701EB5
:10AF0400000110230EE00123F0E70221F1E7013BE9
:10AF14009BB22218D25C10A9194411F8101C4A40A3
:10AF24000DF80320002BF2D100250C950D950E95FC
:10AF34000F9533E0711EADB22A4604EB0111684649
:10AF440018F0C7FF80230DF805306B1C03E00022C6
:10AF54000DF8032001330F2BF9DD10230AE0013B28
:10AF64009BB21DF8032010A9194411F8101C4A4083
:10AF74000DF80320002BF2D1D6E7013A92B210ABC0
:10AF8400134413F8100C63189B5C584008AB985496
:10AF9400002AF2D104A8FFF753FF0135731EAB4218
:10AFA40002DD29011022F3E710230AE0013B9BB2E2
:10AFB40010AAD11811F8402C11F8101C4A4008A905
:10AFC400CA54002BF2D104A8FFF73AFF0CAC0FCC03
:10AFD40038607960BA60FB6010B0BDE8F0810000B1
:10AFE40010B50446134B1B6893B14168114B1B68A1
:10AFF4005B68CB1A002B0BDB0E4B1B6818465B6996
:10B004001BB15A68521A002AF8DB6361446103E0F9
:10B01400084B1A6862611C60064A93889BB201332C
:10B024009BB2938013B10123237010BD7846FCF7C3
:10B03400F5FAF8E7583A002038B505461CE078469A
:10B04400FCF7ECFA6369204A136000236361938878
:10B054009BB2591E89B29180F3B1A36803B3022352
:10B064002370A36821692846984700F0FFF8054635
:10B074002378DBB2022B17D0134B1B681BB3124B84
:10B084001B685B685B1B642B1DD50F4B1C68237806
:10B09400DBB2012BD6D0D2E77846FCF7BFFADCE767
:10B0A4007846FCF7BBFADAE7E26812B900232370AA
:10B0B400E2E76368134463605B1B642BF9D42046A6
:10B0C400FFF78EFFD8E738BD583A002010B5044684
:10B0D400144B1B68834207D0124B1B68D3B15A69C7
:10B0E400A2420ED01346F9E743690E4A13609388CF
:10B0F4009BB2591E89B2918063B97846FCF78EFAE7
:10B1040008E062695A6107498B889BB25A1E92B261
:10B114008A8013B10023237010BD7846FCF77EFAB1
:10B12400F8E700BF583A002008B5064B1B6833B156
:10B13400044B1B680449586800F046F908BD00F048
:10B14400A1F9FBE7583A002069B1020008B500F004
:10B154008DF8FFF771FF00F089F8FFF7E5FF012094
:10B1640008BD000008B5024B186800F091FE08BD48
:10B17400543A002008B5064B00221A605A6005486C
:10B1840000F066FE044B186000F063F808BD00BFD1
:10B19400583A002051B10200543A002010B5044638
:10B1A40000F04AFF80B19CB1A368ABB12378DBB255
:10B1B400012B15D0002363612046FFF711FF00F037
:10B1C40055F8FFF7B1FF10BD7846FCF727FAEAE718
:10B1D4007846FCF723FAE7E77846FCF71FFAE5E739
:10B1E4007846FCF71BFAE5E710B5044600F024FFA7
:10B1F40050B16CB12046FFF769FF0023636100F092
:10B2040035F8FFF791FF10BD7846FCF707FAF0E731
:10B214007846FCF703FAEDE738B504460D4600F02E
:10B224000BFF70B18CB12046FFF750FF0023636120
:10B2340065602046FFF7D4FE00F018F8FFF774FFAE
:10B2440038BD7846FCF7EAF9ECE77846FCF7E6F90E
:10B25400E9E708B516F0A2FE00B108BD16F012FE2B
:10B264000028FAD07846FCF7D9F9F6E770B4EFF382
:10B27400108172B6184B1A68184BD3F80455D3F8DA
:10B284000431012B22D001B962B645EA02650026D9
:10B294006B01EA0E5B1B62EB0602510241EAD351D9
:10B2A4005802431941EB0600810141EA93619A0176
:10B2B400D31A61EB00005B1946EB000013F58043E1
:10B2C4007041DB0B43EA404070BC7047034BD3F83A
:10B2D40004550132D7E700BF603A00200010014056
:10B2E40010B50A4B4FF40032C3F84823C3F80823BF
:10B2F400074B1B682BB1064B1C68FFF7B7FFA04731
:10B3040010BD7846FCF78AF9F5E700BF001001404C
:10B314006C3A0020EFF3108172B6264B0022C3F87A
:10B324000421254A13680133136001B962B6234B23
:10B334001B68002B3DD0214B1A68013A1A601B6828
:10B34400002B36D103F1804303F58833D3F8042569
:10B354001B4B1B689A421ED2EFF3108272B6154B38
:10B36400D3F804350133164909688B4210D3114BC5
:10B37400D3F8043502330F49C1F8443502B962B633
:10B384000C4B4FF40032C3F84423C3F80423704732
:10B394000B4B1B68EFE710B50A4B1B682BB1094B2D
:10B3A4001C68FFF763FFA04710BD7846FCF736F929
:10B3B400F5E7704700100140603A0020643A00202D
:10B3C400683A00206C3A002030B583B0044600236C
:10B3D40001930D46002936D0244B1D60FFF746FF2C
:10B3E400031B002B33DB0023590CD803204C214AC8
:10B3F400002300194FF0000444EB010118F031FC64
:10B40400EFF31083019372B61B4BD3F80435022873
:10B4140038BF0220C3F1FF1202F57F42824218D3E3
:10B424000344154AC2F844354FF40033C2F8443398
:10B43400C2F80433114A1460114A1460019B03B921
:10B4440062B603B030BD7846FCF7E8F8C4E7231AC7
:10B45400CAE7034403F17F4301331A0E013207495B
:10B464000A6023F07F43064A1360E7E76C3A002042
:10B4740020A1070040420F0000100140643A002060
:10B48400683A0020074B4FF40032C3F84823C3F84E
:10B4940008230023044A1360044A1360044A136017
:10B4A400704700BF00100140643A0020683A002051
:10B4B4006C3A002030DF704731DF704710B4034628
:10B4C40002684068A2EB70129C6880EAF43018604D
:10B4D400D9680C445C60114499601044D8605DF8EC
:10B4E400044B704770B582B00D46064608B100247F
:10B4F4000BE07846FCF792F8F9E79DF8071030194D
:10B50400FFF7DAFF9DF807301C44A5420DD90DF171
:10B514000700FFF7CFFF9DF80730002BF7D02A1B59
:10B524009342EAD98DF80720E7E702B070BD000026
:10B5340030B583B005460024019404210DEB0100CD
:10B54400FFF7D0FF074B2B60019B6B60AB60EB6098
:10B5540003E02846FFF7B2FF0134132CF9D903B0F6
:10B5640030BD00BFED5EEAF1704748DF704749DF48
:10B5740070474ADF70470000044B01225A7143F2BE
:10B58400B0629A6043F69822DA607047BC3A0020B1
:10B59400094B03221A74094A5A611A6840F6D8639F
:10B5A4009A4204D9054B43F2B0629A607047034B48
:10B5B40040F6D8629A6070479C3A0020BC3A00205A
:10B5C40008B50F4B1B78022B12D0032B08D0012B8C
:10B5D40003D07846FCF722F80EE0022303740BE054
:10B5E400084B00225A71084999600849D960827150
:10B5F40003230374034B4361014B00221A7008BDFB
:10B60400CD3A0020BC3A0020A0860100FF1FA1070C
:10B6140038B5044600250574012343710E4A1368A6
:10B624000133136000F0D2FA0DF0B4F923680B4A29
:10B634001168283101FB03F1094AA2FB0121A3EBA4
:10B644009141084A7839284600F03CFA00B938BDDF
:10B654007846FBF7E3FFFAE7D03A0020B83A002037
:10B6640083DE1B4395B5020010B5044600238360B6
:10B67400C36003680D4A92680260817991B1012127
:10B68400017403B90A4B991A6161B1F57A7F01D348
:10B694009A4202D94FF47A736361FFF76DFF012375
:10B6A400A37110BDFFF7B4FFF7E700BFBC3A002059
:10B6B4008096980010B50C4631B1C3680133C3605D
:10B6C4004269036813440360836801338360012281
:10B6D4000274426952084261012B0DD0022B19D029
:10B6E40042690368134417498B4222D840F6D76352
:10B6F4009A4221D800231DE0B2F5FA7F05D040F626
:10B70400D8639A42ECD84361EAE7002CF7D10023CE
:10B714004361E5E7C368022B06D0012BE0D1002C7E
:10B72400DED100234361DBE70268064B9B1A4361C9
:10B73400D6E7002313B110BD0123FBE7FFF768FF31
:10B74400F9E700BF8096980043791BB90D4B00229E
:10B754001A70704710B504460DF038F923680A4A88
:10B764001068283003FB00F0084AA2FB0020A3EB7A
:10B774009040783800F05AFA00236371014B00229C
:10B784001A7010BDCC3A0020B83A002083DE1B4367
:10B7940008B5254B01221A71244B1B7813B1244B95
:10B7A4001B781BB3204B00221A7404281AD8DFE834
:10B7B40000F00314110C07001B48FFF755FF1CE0B1
:10B7C40001211948FFF776FF17E000211648FFF71B
:10B7D40071FF12E00DF08AF80FE000F0B9F90DF0F6
:10B7E400BFF80AE07846FBF719FF06E000F090F98D
:10B7F4000D4B18601846FFF7E3FE0B4B1B7C023B16
:10B80400DBB2012B08D9084B1B7C022B08D006485D
:10B8140000230371103008BD0348FFF795FFF2E7DA
:10B82400014B01221A76F2E79C3A0020CD3A00201F
:10B83400CC3A002008B50438042814D8DFE800F016
:10B84400182614030E00164B1B7E012B0BD1FFF799
:10B854008EFE40B17846FBF7E1FE04E0104B002277
:10B864001A760DF0D7F808BD7846FBF7D7FEFAE74D
:10B87400FFF782FE0B4840F6D8638360FFF779FE3A
:10B884000028F0D07846FBF7C9FEECE70548FFF73F
:10B8940070FE0028E7D07846FBF7C0FEE3E700BF60
:10B8A4009C3A0020BC3A002010B40E4A00231370C6
:10B8B40013710121517143F2B064946043F69824EA
:10B8C400D460094A1060094A1370094A1370094A7E
:10B8D4001360094A137153711360137691715DF803
:10B8E400044B7047BC3A0020B83A0020CC3A002000
:10B8F400CD3A0020D03A00209C3A002008B5104BE5
:10B904001B7E012B08D0022B17D00BB1002008BDE1
:10B914000C48FFF72AFE40B90B48FFF72AFE40B94E
:10B92400074B02221A760020F1E77846FBF776FEF1
:10B93400F2E77846FBF772FEF2E71120E7E700BF73
:10B944009C3A002095B70200BC3A00200B4B1B7CAC
:10B95400023BDBB2012B0BD9094B1B78012B09D01D
:10B96400022B09D0032B01D000207047012070471F
:10B974000120704701207047012070479C3A002045
:10B98400CD3A0020014B1868704700BF9C3A002054
:10B994000D4B5B790BB90020704710B50A4B1C683E
:10B9A4000A4B1B68283303FB04F3094AA2FB032355
:10B9B400A4EB9344783C00F0ABF80346201A00D47F
:10B9C40010BD181BFCE700BF9C3A0020B83A0020C9
:10B9D40083DE1B43014B5879704700BF9C3A00201B
:10B9E400014B1879704700BF9C3A0020024B187E27
:10B9F400003818BF012070479C3A0020EFF31083F1
:10BA040072B6054A527922B1044A4FF48071C2F8E1
:10BA1400001103B962B670479C3A002000E100E0CF
:10BA240008B5054B1B7E022B00D008BD034B012239
:10BA34001A70FFF7E3FFF8E79C3A0020CD3A0020A4
:10BA440008B5074B1B7E022B00D008BD012804D08B
:10BA5400044A1370FFF7D2FFF7E70323F8E700BFA8
:10BA64009C3A0020CD3A002008B5094B1B782BB135
:10BA740048B9084B1B7813B1012300E00023044AA2
:10BA8400107013B908BD0023F9E7FFF7B7FFF9E712
:10BA9400CC3A0020CD3A002010B4094B00F15002FA
:10BAA400002443F8224000F110040122A240C3F80C
:10BAB400042300F5A87043F820105DF8044B704788
:10BAC40000800040022817D810B5EFF310840C4B07
